:020000040800F2
:10000000880A002089010008171100081311000850
:1000100015110008C50D0008292200080000000085
:10002000000000000000000000000000E1160008D1
:10003000C70D000800000000F91500086D18000841
:10004000A3010008A3010008A3010008A301000800
:10005000A3010008A3010008A3010008A3010008F0
:10006000A3010008A3010008A3010008A3010008E0
:10007000A3010008A3010008A3010008A3010008D0
:10008000A3010008A3010008A3010008A3010008C0
:10009000A3010008A3010008A3010008A3010008B0
:1000A000A3010008A3010008A3010008A3010008A0
:1000B000A3010008A3010008A3010008A301000890
:1000C000A3010008A3010008A3010008A301000880
:1000D000A3010008A51B0008A3010008351E0008A5
:1000E000A3010008A3010008A301000800F002F822
:1000F00000F03AF80AA090E8000C82448344AAF188
:100100000107DA4501D100F02FF8AFF2090EBAE885
:100110000F0013F0010F18BFFB1A43F0010318473B
:10012000A0670000C0670000103A24BF78C878C1FB
:10013000FAD8520724BF30C830C144BF04680C60ED
:10014000704700000023002400250026103A28BF35
:1001500078C1FBD8520728BF30C148BF0B60704739
:100160001FB51FBD10B510BD00F036F81146FFF7E2
:10017000F7FF02F073F800F054F803B4FFF7F2FF52
:1001800003BC00F057F800000948804709480047C1
:10019000FEE7FEE7FEE7FEE7FEE7FEE7FEE7FEE737
:1001A000FEE7FEE704480549054A064B7047000094
:1001B00071180008ED00000888040020880A00205B
:1001C00088060020880600207047704770470000AE
:1001D00000487047240400207546FFF7F9FFAE463B
:1001E00005006946534620F00700854618B020B543
:1001F000FFF7D8FFBDE820404FF000064FF00007A2
:100200004FF000084FF0000B21F00701AC46ACE8BE
:10021000C009ACE8C009ACE8C009ACE8C0098D462B
:10022000704710B50446AFF300802046BDE810408B
:10023000FFF7A3BF01491820ABBEFEE7260002006E
:100240007047000070B51A4801F080FA194801F0B3
:1002500095FA962000F0B8FD174801F043FA174EC2
:10026000174D20E0002428880D280AD1204602F0EE
:10027000AFF901F04FFA308800F0A6FD641C2D2C78
:10028000F1DD2D2428880D280AD1204602F0A0F99E
:1002900001F040FA308800F097FD641E002CF1DC7C
:1002A00028880D2802D128880D28DBD070BD0000D9
:1002B0000000A041000034420000B4421A000020B7
:1002C000160000202DE9F0471C4C1D4F1D4E608884
:1002D0001D4DDFF878904FF00C08002817D03846F5
:1002E00001F034FA304601F015FA288800F06CFD70
:1002F000384601F043FA304601F0F4F9288800F05E
:1003000063FDA9F8008000206080BDE8F0873846D2
:1003100001F034FA304601F0E5F9288800F054FD88
:10032000384601F013FA304601F0F4F9288800F05D
:100330004BFDA9F8008001206080E6E71E00002048
:1003400000000C4200000C431800002016000020A2
:100350002DE9F0471D4C1E4F1E4E20881E4DDFF824
:100360007C904FF00208002818D0384601F0D2F9EE
:10037000304601F0EBF9288800F026FD384601F000
:10038000B1F9304601F0FAF92888503000F01CFD30
:10039000A9F8008000202080BDE8F087384601F0F1
:1003A000A1F9304601F0EAF9288800F00DFD384641
:1003B00001F0B0F9304601F0C9F92888503000F05A
:1003C00003FDA9F8008001202080E5E71E00002041
:1003D00000000C4300000C42180000201600002012
:1003E0002DE9F0411D4FDFF878801E4D1E4E1F4C49
:1003F0002FE0384601F08EF9404601F0A7F9288831
:1004000000F0E2FC2088062826D1384601F06AF97F
:10041000404601F0B3F9288800F0D6FC2088062871
:100420001AD1304601F076F9304601F08FF928886C
:1004300000F0CAFC208806280ED1304601F052F99F
:10044000304601F09BF9288800F0BEFC2088062881
:1004500002D120880628CCD0BDE8F08100003442CB
:1004600000000743180000200000B44216000020DE
:100470002DE9F047012003244F4E504FDFF8408113
:10048000DFF8409193E0304601F02CF9384601F056
:1004900041F93C2000F098FC404601F06FF95A25E4
:1004A000B9F8000014281CD1284602F091F801F098
:1004B0004DF9062000F088FC6D1CB42DF0DB10E037
:1004C000B425B9F8000014280AD1284602F080F8B3
:1004D00001F03CF90F2000F077FC6D1E962DF0DC4A
:1004E000641E1CB1B9F800001428E9D0B9F8000066
:1004F00014285FD1642000F067FC304601F0F2F868
:10050000304601F007F9B9F80000142852D1502004
:1005100000F05AFC304601F019F9304601F02EF98E
:10052000642000F051FCB9F80000142842D10324E3
:10053000304601F0EFF8384601F0D4F8B9F8000081
:10054000142837D13C2000F03FFC404601F0FEF873
:100550005A25B9F8000014281CD1284602F038F8B2
:1005600001F00CF9062000F02FFC6D1CB42DF0DB1F
:1005700010E0B425B9F8000014280AD1284602F08A
:1005800027F801F0FBF80F2000F01EFC6D1E962DE1
:10059000F0DC641E1CB1B9F800001428E9D0B9F8E9
:1005A0000000142802D10220A9F800000020002831
:1005B0007FF469AFBDE8F0870000B4420000A041BD
:1005C0000000DC42160000202DE9F0411D4FDFF84D
:1005D00078801E4D1E4E1F4C2FE0384601F082F8E9
:1005E000404601F0CBF8288800F0EEFB2088072871
:1005F00026D1384601F08EF8404601F0A7F8288849
:1006000000F0E2FB208807281AD1304601F06AF892
:10061000304601F0B3F8288800F0D6FB2088072880
:100620000ED1304601F076F8304601F08FF8288878
:1006300000F0CAFB2088072802D120880728CCD0E8
:10064000BDE8F0810000344200000743180000209C
:100650000000B442160000202DE9F0411F4E204D4D
:1006600036E01E24204601F0CBFF074601F03AF8A1
:10067000384601F04FF8384601F068F8384601F086
:100680007DF8308800F0A0FB2888082803D1641C7E
:10069000E4B2962CE6D39624204601F0B1FF07463B
:1006A00001F020F8384601F035F8384601F04EF8F0
:1006B000384601F063F8308800F086FB2888082867
:1006C00003D1641EE4B21E2CE6D82888082802D183
:1006D00028880828C5D0BDE8F08100001A00002055
:1006E0001600002070B5962000F06EFB164E174DD8
:1006F00022E01E24204601F083FF01F097FD3088A0
:1007000000F062FB2888092803D1641CE4B2962C0F
:10071000F0D39624204601F073FF01F087FD308866
:1007200000F052FB2888092803D1641EE4B21E2C75
:10073000F0D82888092802D128880928D9D0BDE80E
:100740007040962000F040BB1A00002016000020E8
:100750002DE9F041354FDFF8D880364C364E374D15
:100760005FE0384600F0D6FF384600F0EFFF208803
:1007700000F02AFB2888042856D1404600F0B2FF3A
:10078000404600F0FBFF208800F01EFB288804286C
:100790004AD1304600F0BEFF304600F0D7FF208837
:1007A00000F012FB288804283ED1304600F09AFF62
:1007B000304600F0E3FF208800F006FB288804287C
:1007C00032D1384600F08EFF384600F0D7FF20883F
:1007D00000F0FAFA2888042826D1404600F09AFF53
:1007E000404600F0B3FF208800F0EEFA2888042885
:1007F0001AD1304600F076FF304600F0BFFF208867
:1008000000F0E2FA288804280ED1304600F082FF7A
:10081000304600F09BFF208800F0D6FA2888042894
:1008200002D1288804289CD0BDE8F0810000344221
:1008300000000743180000200000B442160000200A
:100840002DE9F041354FDFF8D880364C364E374D24
:100850005FE0384600F05EFF384600F077FF208802
:1008600000F0B2FA2888052856D1404600F03AFF39
:10087000404600F083FF208800F0A6FA288805286B
:100880004AD1304600F046FF304600F05FFF208836
:1008900000F09AFA288805283ED1304600F022FF61
:1008A000304600F06BFF208800F08EFA288805287B
:1008B00032D1384600F016FF384600F05FFF20883E
:1008C00000F082FA2888052826D1404600F022FF51
:1008D000404600F03BFF208800F076FA2888052883
:1008E0001AD1304600F0FEFE304600F047FF208867
:1008F00000F06AFA288805280ED1304600F00AFF79
:10090000304600F023FF208800F05EFA2888052892
:1009100002D1288805289CD0BDE8F081000007435B
:1009200000003442180000200000B44216000020ED
:100930002DE9F041DFF8208187E0484D284600F09E
:10094000D1FE284600F0E6FE454C208800F03CFA37
:10095000284600F0FBFE284600F010FF208800F03B
:1009600033FA404E304600F0BDFE304600F0D2FE75
:10097000208800F029FA304600F0E8FE304600F00A
:10098000FDFE208800F020FA284600F0C3FE28462D
:1009900000F0A8FE344F384600F0D8FE384600F08C
:1009A000EDFE962000F010FA304600F09BFE304637
:1009B00000F0B0FE304600F0C9FE304600F0DEFE2A
:1009C000962000F001FA384600F0C0FE384600F0EC
:1009D000D5FE208800F0F8F9384600F083FE38464E
:1009E00000F098FE208800F0EFF9304600F0AEFEEF
:1009F000304600F0C3FE208800F0E6F9304600F0F3
:100A000071FE304600F086FE208800F0DDF93846A1
:100A100000F080FE384600F065FE284600F096FEA5
:100A2000284600F0ABFE962000F0CEF9304600F0EC
:100A300059FE304600F06EFE304600F087FE30462C
:100A400000F09CFE962000F0BFF9B8F800000E28D8
:100A50003FF473AFBDE8F0811600002000000743AB
:100A6000180000200000B4420000344210B50C4CC5
:100A7000204600F037FE204600F04CFE962000F0A5
:100A8000A3F9084C204600F061FE204600F076FEF7
:100A900005480078012802D104490920088010BDCA
:100AA0000000A0410000B442140000201600002005
:100AB00010B5094C204600F015FE204600F02AFE35
:100AC000962000F081F9204600F040FE2046BDE867
:100AD000104000F053BE00000000A04110B50C4CC7
:100AE000204600F0FFFD204600F014FE962000F0A6
:100AF0006BF9084C204600F029FE204600F03EFE2F
:100B000005480078012802D104490920088010BD59
:100B10000000B4420000A041140000201600002094
:100B200010B5094C204600F0DDFD204600F0F2FD36
:100B3000962000F049F9054C204600F007FE2046BB
:100B4000BDE8104000F01ABE0000A0410000344390
:100B500070B52E4C204600F0F9FD204600F00EFE48
:100B6000502000F031F95A24294D204601F030FD83
:100B7000064600F0B7FD304600F0CCFD288813286B
:100B800005D10F2000F020F9641E0A2CEDDC0A24A8
:100B9000204601F01DFD064600F0A4FD304600F0A1
:100BA000B9FD2888132805D10F2000F00DF9641C29
:100BB0005A2CEDDB5A24204601F00AFD064600F0CF
:100BC000C5FD304600F0DAFD2888132805D10F2036
:100BD00000F0FAF8641CAA2CEDDBAA24204601F0F0
:100BE000F7FC064600F0B2FD304600F0C7FD28884D
:100BF000132805D10F2000F0E7F8641E5A2CEDDC15
:100C00002888132801D11420288070BD0000B44228
:100C10001600002010B50C4C204600F063FD204665
:100C200000F078FD962000F0CFF8204600F08EFD11
:100C3000204600F0A3FD05480078012802D10449B0
:100C40000920088010BD00000000B44214000020FC
:100C50001600002010B50C4C204600F077FD204611
:100C600000F08CFD962000F0AFF8204600F03AFD31
:100C7000204600F04FFD05480078012802D10449C4
:100C80000920088010BD00000000B44214000020BC
:100C9000160000202DE9F04387B00121082000F064
:100CA000BBFC0121880300F0B7FC0121082000F003
:100CB000B3FC0121880400F0A1FC18278DF81B70FB
:100CC0000124ADF8184003258DF81A50DFF8E8909C
:100CD00006A9484600F0C4F94FF048088DF81B807B
:100CE0000226ADF818608DF81A5006A9484600F0A3
:100CF000B7F98DF81B70A002ADF818008DF81A50E6
:100D000006A9484600F0ACF98DF81B80E002ADF86A
:100D100018008DF81A5006A9484600F0A1F94FF4C2
:100D2000165002900020ADF814000C21ADF81210FE
:100D3000ADF81000ADF80E00ADF80C001F4D02A983
:100D4000284601F00FFA1E4F02A9384601F00AFAB0
:100D500040F2255801224146284601F0E7F90122D8
:100D60004146384601F0E2F94FF4A06000F006FA7F
:100D700025208DF804008DF807408DF805408DF88A
:100D8000064001A800F0C8F927208DF804008DF86E
:100D900007408DF805608DF8064001A800F0BCF909
:100DA0000121284601F096F90121384601F092F917
:100DB00007B0BDE8F0830000000C0140003801409E
:100DC00000480040FEE7704700B502464FF47A73D2
:100DD00002E0184600F004F8521E501CF9D100BD84
:100DE00000EBC000C1004FF0E020416100218161B3
:100DF000052101610169C903FCD504210161704726
:100E000008B58648008800282BD0012837D0022852
:100E100043D003284FD004285BD0052867D006288C
:100E200073D007287ED008287DD009287CD00A28D6
:100E30007BD00B287AD00C2879D00D2878D00E28BA
:100E400077D00F2876D100F0A3F9754800210090E3
:100E500040238022084600F0A3FABDE8084000F0D5
:100E6000F9BA00F095F96F480021009040238022E4
:100E7000084600F095FABDE8084000F0EBBA00F033
:100E800087F969480021009040238022084600F03D
:100E900087FABDE8084000F0DDBA00F079F9634850
:100EA0000021009040238022084600F079FABDE836
:100EB000084000F0CFBA00F06BF95D4800210090C7
:100EC00040238022084600F06BFABDE8084000F09D
:100ED000C1BA00F05DF957480021009040238022FC
:100EE000084600F05DFABDE8084000F0B3BA00F033
:100EF0004FF951480021009040238022084600F01D
:100F00004FFABDE8084000F0A5BA00F041F94B489F
:100F10000021009040238022084600F041FABDE8FD
:100F2000084008E009E016E023E030E03DE04AE058
:100F300057E064E071E000F08DBA00F029F9404814
:100F40000021009040238022084600F029FABDE8E5
:100F5000084000F07FBA00F01BF93A4800210090E9
:100F600040238022084600F01BFABDE8084000F04C
:100F700071BA00F00DF9344800210090402380221E
:100F8000084600F00DFABDE8084000F063BA00F032
:100F9000FFF82E480021009040238022084600F0F0
:100FA000FFF9BDE8084000F055BA00F0F1F8284814
:100FB0000021009040238022084600F0F1F9BDE8AE
:100FC000084000F047BA00F0E3F822480021009002
:100FD00040238022084600F0E3F9BDE8084000F015
:100FE00039BA00F0D5F81C48002100904023802237
:100FF000084600F0D5F9BDE8084000F02BBA00F033
:10100000C7F816480021009040238022084600F0CF
:10101000C7F9BDE8084000F01DBA08BD1C0000205B
:10102000BE640008BE380008BE3C0008BE300008A0
:10103000BE340008BE400008BE2C0008BE280008D0
:10104000BE480008BE440008BE4C0008BE50000860
:10105000BE540008BE580008BE5C0008BE60000810
:101060002DE9F0410022CC7804F00F03E40601D50D
:101070008C7823430C784FF00F0714F0FF0F4FF0DC
:10108000010C1CD005680CFA02F40E882640A6421A
:1010900011D1960007FA06F825EA080503FA06F8C2
:1010A00048EA0505CE78282E02D0482E02D002E06C
:1010B000446100E00461521C082AE4D305600A88F8
:1010C000FF2A1ED94568002202F108060CFA06F430
:1010D0000E882640A64210D1960007FA06F825EAA7
:1010E000080503FA06F848EA0505CE78282E00D14F
:1010F0004461CE78482E00D10461521C082AE3D303
:101100004560BDE8F081002A01D00161704741616E
:101110007047FEE7FEE7704770B50F23C2780126DF
:101120000178002A1ED0144A126802F4E062C2F567
:10113000E062120AC2F10404D3404578A5408278E7
:101140001A402A43120101F1E02181F800240078BD
:1011500000F01F018E404009800000F1E020C0F83F
:10116000006170BD01F01F0086404809800000F159
:10117000E020C0F8806170BD0CED00E0024908433A
:1011800002490860704700000000FA050CED00E01D
:1011900010B50021074C0022002004EBC1131A54A3
:1011A000401CC0B28028FAD3491CC9B20829F3D325
:1011B00010BD0000240000202DE9F041CF1823E0ED
:1011C000044686181CE07F2C18D8002916DB3F291E
:1011D00014DCCB1701EB5373DD104FEAC51C0C4D2B
:1011E00023F007036544A1EB030815F804C00123AD
:1011F00003FA08F32CEA030C05F804C0641C24B2BB
:10120000A642E0DC491C09B28F42D9DCBDE8F0817E
:101210002400002038B500214FF47A720020401CD1
:101220009042FCD3491C9142F8D30121082000F0E0
:10123000F3F914208DF8030003208DF802004FF419
:101240000050ADF80000094C69462046FFF708FF42
:10125000A114ADF8001069462046FFF701FF0120F8
:1012600000F00CF9012000F011F938BD000C01402C
:1012700070B505460024802626FA04F0284000D0E8
:10128000012000F003F9012000F0F8F8002000F040
:10129000F5F8641CE4B2082CEED3012000F0EEF85F
:1012A000BDE87040002000F0E9B810B5012000F062
:1012B000EDF8012000F0E2F8002000F0E7F8BDE8CA
:1012C0001040002000F0DAB810B5002000F0DEF881
:1012D000012000F0D3F8BDE81040012000F0D6B89E
:1012E00010B5FFF797FFAE2000F0D8F8D52000F03A
:1012F000D5F8802000F0D2F8A82000F0CFF83F20E9
:1013000000F0CCF8D32000F0C9F8002000F0C6F8B7
:10131000402000F0C3F8A12000F0C0F8C82000F081
:10132000BDF8DA2000F0BAF8122000F0B7F88120FA
:1013300000F0B4F8CF2000F0B1F8D92000F0AEF8FA
:10134000F12000F0ABF8DB2000F0A8F8302000F02E
:10135000A5F8A42000F0A2F8A62000F09FF88D20A8
:1013600000F09CF8142000F099F8AF2000F096F8F7
:10137000FFF70EFFBDE8104000F06CB810B5891CF7
:10138000CCB240F0B00000F089F8102040EA141010
:1013900000F084F804F00F00BDE8104000F07EB8C3
:1013A0002DE9FF4F0F46DDF8349090461D4600248E
:1013B0002B46424639460098FFF7FEFE6D1EE817A1
:1013C00005EB50700121DFF888C001EBE00A3BE03B
:1013D000002035E000990D187F2D2FD8F91707EB65
:1013E0005171CA1016B221F007017B1A002F03DADF
:1013F000761E36B208331BB2311907290DD804FB0B
:1014000008FB09EB000E0CEBC1121BF80EB0565D89
:101410000BFA03FB46EA0B065655491C07290DD863
:1014200004FB08F609EB000B0CEBC11116F80B607E
:101430004A5DC3F10803DE4032434A55401CC0B246
:101440004045C7D3641CE4B2A245C1DCBDE8FF8FB0
:101450002400002070B50024074D00212046FFF72E
:101460008DFF05EBC410802100F029F8641CE4B264
:10147000082CF2D370BD00002400002002464FF477
:1014800000510148FFF73FBE000C014002464FF4F7
:1014900080510148FFF737BE000C014010B50446EB
:1014A000FFF703FF7820FFF7E3FE0020FFF7E0FEE1
:1014B0002046FFF7DDFEBDE81040FFF705BF70B521
:1014C00005460E46FFF7F1FE7820FFF7D1FE4020DB
:1014D000FFF7CEFE002404E0285DFFF7C9FE641C80
:1014E000E4B2B442F8D3BDE87040FFF7EDBE0000AF
:1014F00070B588B00121084600F080F80121022073
:1015000000F07CF80121042000F086F818208DF806
:101510001F004F20ADF81C0003208DF81E0007A906
:101520002648FFF79DFD4FF08045284600F0D4F98E
:10153000234E304600F0D0F90024ADF81640ADF847
:10154000124044F61F60ADF814004720ADF81000BB
:101550008DF8184004A9284600F0D6FA04A93046B0
:1015600000F0D2FA684600F0BBFA6020ADF8000047
:10157000ADF808400120ADF80200ADF8064069461C
:10158000284600F0AFF96946284600F0EFF96946B1
:10159000284600F02FFA6946284600F06DFA6946A1
:1015A000304600F09FF90121284600F089F9012119
:1015B000304600F085F908B070BD00000008014019
:1015C0000004004001464FF0804000F093BA01460D
:1015D0004FF0804000F090BA01464FF0804000F09C
:1015E0008DBA01464FF0804000F08ABA01460148AA
:1015F00000F080BA0004004070470000054A00294E
:1016000003D0D1690143D1617047D1698143D16170
:101610007047000000100240054A002903D091697C
:101620000143916170479169814391617047000066
:101630000010024010B5264A516801F00C01254BFC
:10164000002927D0042927D0082927D00360516812
:1016500001F0F0010909204B5C5C0168E140416048
:10166000546804F4E064240A1C5D21FA04F48460E4
:10167000546804F46054E40A1B5DD940C1605268A8
:1016800002F44042920B144B1B1F9A5CB1FBF2F127
:10169000016110BD0360DAE70360D8E7516801F427
:1016A0007011536803F48033022404EB914133B189
:1016B00053689B0307D5094B59430160C7E7074BA4
:1016C00059430160C3E7034B59430160BFE7000082
:1016D0000010024000127A000400002000093D00C2
:1016E0007047000010B5084900F090FE074900F06F
:1016F0009BFF074900F028FE00F04AFFBDE81040BC
:1017000080B2FFF75FBF0000000034430000FA44DE
:101710000000FA4310B50A4C214601F051F8214669
:1017200000F074FE074900F07FFF074900F00CFE4F
:1017300000F02EFFBDE8104080B2FFF748BF000068
:10174000000034430000FA440000FA4310B5084991
:1017500000F05CFE074900F067FF074900F0F4FD68
:1017600000F016FFBDE8104080B2FFF735BF000063
:10177000000034430000FA440000FA4310B50A4C5C
:10178000214601F01DF8214600F040FE074900F017
:101790004BFF074900F0D8FD00F0FAFEBDE810400D
:1017A00080B2FFF71EBF0000000034430000FA447F
:1017B0000000FA43FFF79CBEAFF300800CB5002297
:1017C000019200922748016841F4803101604FF492
:1017D000A063016801F4003100910199491C019155
:1017E000009911B901999942F3D10168890302D591
:1017F0000121009100E000920099012930D11A499D
:101800000A6842F010020A600A6822F003020A60C5
:101810000A6842F002020A60416841604168416022
:10182000416841F480614160416821F47C1141606C
:10183000416841F4E8114160016841F08071016044
:1018400001688901FCD5416821F0030141604168CC
:1018500041F0020141604168C1F381010229FAD1DE
:101860000CBD000000100240002002407047000044
:1018700010B50F48016841F00101016041680D4A4F
:101880001140416001680C4A11400160016821F477
:1018900080210160416821F4FE0141604FF41F0185
:1018A0008160FFF789FF05494FF00060086010BDB7
:1018B000001002400000FFF8FFFFF6FE08ED00E018
:1018C000002904D0018841F001010180704701889E
:1018D00021F0010101807047018921F00701018198
:1018E0007047000030B5028C22F001020284028CA5
:1018F0008388048B24F0700424F003050C882C43A7
:1019000022F002020D8915434A882A43124DA8424B
:101910000BD0124DA84208D0114DA84205D0114D50
:10192000A84202D0104DA8420FD122F008054A89E2
:101930002A4322F004058A882A4323F4807323F47F
:1019400000738D891D43CB892B4383800483C98811
:101950008186028430BD0000002C0140003401402B
:1019600000400140004401400048014070B5028C35
:1019700022F010020284028C8388048B24F4E04459
:1019800024F440760D884FF6FF7404EA05253543AC
:1019900022F020020E8904EA061616434A8804EA59
:1019A00002123243114EB04202D0114EB04217D152
:1019B00022F080024E8904EA0616164326F04006FD
:1019C0008A8804EA0212324323F4806323F400631A
:1019D0008E8904EA86061E43CB8904EA83033343D7
:1019E00083800583C9880187028470BD002C014073
:1019F0000034014070B5028C22F480720284028CA3
:101A00008388848B24F0700424F003040D8825431C
:101A100022F400720E894FF6FF7404EA062616437C
:101A20004A8804EA02223243114EB04202D0114EDB
:101A3000B04217D122F400664A8904EA02223243F6
:101A400022F480668A8804EA0222324323F4805317
:101A500023F400538E8904EA06161E43CB8904EA58
:101A60000313334383808583C9888187028470BDD3
:101A7000002C01400034014070B5028C22F48052E9
:101A80000284058C8288838B23F4E04323F4407620
:101A90000C884FF6FF7303EA0424344325F4005501
:101AA0000E8903EA06362E434D8803EA0535354391
:101AB000094EB04202D0094EB04205D122F4804610
:101AC0008A8903EA8212324382808483C988A0F81B
:101AD0004010058470BD0000002C0140003401401E
:101AE0000021018041808180C1800181418181810B
:101AF000C181704781867047018770478187704731
:101B0000A0F840107047000030B502881B4C1C4DF7
:101B1000A0420DD0A8420BD0B0F1804F08D0194B95
:101B2000984205D0184B984202D0184B984203D1E6
:101B300022F070034A881A43154B984206D0154B81
:101B4000984203D022F44073CA881A4302808A88DC
:101B500082850A880285A0420AD0A84208D00E4A8F
:101B6000904205D00D4A904202D00D4A904201D1D8
:101B7000097A01860121818230BD0000002C0140DC
:101B8000003401400004004000080040000C004008
:101B9000001000400014004000400140004401409B
:101BA000004801402DE9F05FA04F40F22551384632
:101BB00000F09CFA012872D1384600F031FB012672
:101BC0009B4C302803D12681FFF71AF966803846EE
:101BD00000F026FB02254FF00508312804D1A4F8B7
:101BE0000880FFF70DF96580384600F019FB4FF0CB
:101BF0000309322804D12681FFF702F9A4F80290E4
:101C0000BA46504600F00CFB0427332803D1258147
:101C1000FFF7F6F86780504600F002FB342804D145
:101C20002581FFF7EDF8A4F80280504600F0F8FA9D
:101C30004FF0070B4FF0060A352805D1A4F808B07D
:101C4000FFF7DEF8A4F802A0784800F0E9FA4FF0B8
:101C50000808362805D1A4F80880FFF7D1F8A4F8C1
:101C600002B0DFF8C8B1584600F0DAFA372804D1DC
:101C70002781FFF7C5F8A4F80280584600F0D0FA93
:101C8000382812D1A088782803D1A4F80890FFF74B
:101C9000B7F8A188642903D91439A18005E0C2E00E
:101CA0002581FFF7ADF8C820A080584600F0B8FAAB
:101CB0004FF00908392811D1E088042803D1A4F88D
:101CC0000890FFF79DF8E088032802D9401EE080C5
:101CD00004E02781FFF794F8A4F80680584600F046
:101CE0009FFA4FF00009402808D1207868B184F8A5
:101CF00000902681FFF784F8A4F80280584600F08F
:101D00008FFA0A26412802D005E02670F1E72581E6
:101D1000FFF776F86680454800F082FA4FF00B0B2B
:101D2000422804D12581FFF76BF8A4F802B03F48A0
:101D300000F076FA0D25432804D1A4F808A0FFF797
:101D40005FF86580394800F06BFA4FF00E0A4428BE
:101D500004D12781FFF754F8A4F802A0334F384686
:101D600000F05EFA452805D1A4F80880FFF748F88E
:101D7000A4F80280384600F053FA462802D12681A2
:101D8000FFF73EF8384600F04BFA472803D1A4F895
:101D900008B0FFF735F8384600F042FA482803D17A
:101DA0000C202081FFF72CF8384600F039FA49283A
:101DB00002D12581FFF724F8384600F031FA502887
:101DC00003D1A4F808A0FFF71BF8384600F028FA62
:101DD000512805D1A4F80890FFF712F8122060806E
:101DE000384600F01DFA0F25522804D12581FFF74F
:101DF00007F813206080384600F012FA532804D107
:101E00002581FEF7FDFF14206080384600F008FAB7
:101E1000542801D1112060803846BDE8F05F40F2BF
:101E2000255100F04FB9BDE8F09F00000038014097
:101E3000140000202DE9F05FA04F40F225513846F4
:101E400000F054F9012872D1384600F0E9F9012672
:101E50009B4C302803D12681FEF7D2FF668038469E
:101E600000F0DEF902254FF00508312804D1A4F86E
:101E70000880FEF7C5FF6580384600F0D1F94FF0C5
:101E80000309322804D12681FEF7BAFFA4F8029094
:101E9000BA46504600F0C4F90427332803D12581FF
:101EA000FEF7AEFF6780504600F0BAF9342804D13F
:101EB0002581FEF7A5FFA4F80280504600F0B0F996
:101EC0004FF0070B4FF0060A352805D1A4F808B0EB
:101ED000FEF796FFA4F802A0784800F0A1F94FF0B1
:101EE0000808362805D1A4F80880FEF789FFA4F871
:101EF00002B0DFF8C8B1584600F092F9372804D193
:101F00002781FEF77DFFA4F80280584600F088F98B
:101F1000382812D1A088782803D1A4F80890FEF7B9
:101F20006FFFA188642903D91439A18005E0C2E0BC
:101F30002581FEF765FFC820A080584600F070F9A3
:101F40004FF00908392811D1E088042803D1A4F8FA
:101F50000890FEF755FFE088032802D9401EE08074
:101F600004E02781FEF74CFFA4F80680584600F0F5
:101F700057F94FF00009402808D1207868B184F85B
:101F800000902681FEF73CFFA4F80280584600F03E
:101F900047F90A26412802D005E02670F1E725819D
:101FA000FEF72EFF6680454800F03AF94FF00B0B24
:101FB000422804D12581FEF723FFA4F802B03F4850
:101FC00000F02EF90D25432804D1A4F808A0FEF74F
:101FD00017FF6580394800F023F94FF00E0A4428B6
:101FE00004D12781FEF70CFFA4F802A0334F384636
:101FF00000F016F9452805D1A4F80880FEF700FF87
:10200000A4F80280384600F00BF9462802D1268158
:10201000FEF7F6FE384600F003F9472803D1A4F88E
:1020200008B0FEF7EDFE384600F0FAF8482803D174
:102030000C202081FEF7E4FE384600F0F1F8492834
:1020400002D12581FEF7DCFE384600F0E9F8502881
:1020500003D1A4F808A0FEF7D3FE384600F0E0F85C
:10206000512805D1A4F80890FEF7CAFE122060801E
:10207000384600F0D5F80F25522804D12581FEF707
:10208000BFFE13206080384600F0CAF8532804D100
:102090002581FEF7B5FE14206080384600F0C0F8B8
:1020A000542801D1112060803846BDE8F05F40F22D
:1020B000255100F007B8BDE8F09F0000004800403F
:1020C0001400002040F66A120A0A01219140C94317
:1020D00001807047002904D0818941F40051818139
:1020E0007047818921F400518181704770B50024C7
:1020F00040F66A12C1F3421301F01F05012606FAE9
:1021000005F2012B0CD0022B0DD0838A1340090A53
:102110008E40008830400BB100B10124204670BDD4
:1021200083891340F3E7038A1340F0E710B540F6C4
:102130006A13C1F3421301F01F040121A140012BD6
:1021400007D0022B07D014303AB102680A4302606C
:1021500010BD0C30F8E71030F6E702688A430260E1
:1021600010BD000030B585B004460D46208A4CF6FF
:10217000FF710840E98801432182A0894EF6F311DE
:102180000840A9882A8911436A8902431143A18121
:10219000A08A4FF6FF410840A9890143A182684601
:1021A000FFF748FA1D48844201D1039800E00298E5
:1021B000A189090408D500EBC00101EB00102968D2
:1021C0004900B0FBF1F007E000EBC00101EB0010AB
:1021D00029688900B0FBF1F06422B0FBF2F109013B
:1021E0000B096FF018056B4300EB8300A3891D04F6
:1021F0004FF0320307D503EBC000B0FBF2F000F064
:102200000700084306E003EB0010B0FBF2F000F01B
:102210000F000843208105B030BD000000380140A8
:102220008088C0F308007047FEE7000010B5084939
:1022300000F0ECF8074900F0F7F9074900F084F8DE
:1022400000F0A6F9BDE8104080B2FFF7CFB900005A
:10225000000034430000FA440000FA4308B5FFF7D9
:10226000A9FAFFF73DF8FEF715FD3448002100906C
:10227000402380220846FFF793F8FFF7EBF8304C35
:102280002088032824D0012828D0022829D0042817
:102290002AD005282BD006282CD007282DD0082896
:1022A0002ED009282FD00A2830D00B2831D00C2866
:1022B00032D00D2833D00E2834D0112835D0122832
:1022C00036D0132837D01428DAD1FEF7D1F8D7E763
:1022D000FEF7EEFB1B48FFF7A9FFD1E7FEF7FEFB79
:1022E000CEE7FEF797FCCBE7FEF732FAC8E7FEF73A
:1022F000A7FAC5E7FEF774F8C2E7FEF765F9BFE78E
:10230000FEF7AAF9BCE7FEF7EDF9B9E7FEF720F80A
:10231000B6E7FDF7D7FFB3E7FEF79CFCB0E7FDF7A4
:1023200091FFADE7FEF704FBAAE7FEF79FFBA7E7E7
:10233000FEF7F6FBA4E7FEF70BFCA1E7BE4C000896
:10234000160000200000B44290EA010F48BF81F05F
:10235000004100F14682421A3CBF801A89184FEAB8
:10236000D0524FF07F4C1CEA410FA2EBD15318BF63
:102370009CEA026F00F03B804FF0004C4CEA0020DA
:102380004CEA012121FA03FC10EB0C0C1ED202F1E5
:10239000FF325FEA1C2040EBC25038BF70471CF090
:1023A0007F0F4FEA400C18BFBCF17F4F38BF70471A
:1023B000C3F12003994008BF20F00100BCF17F4F1A
:1023C00038BF7047A0F1C04000F0F5B94FEA3C00BB
:1023D000000A40EBC25028BF1CF0FF0F4FEA400C30
:1023E000E6D018BFBCF17F4F38BF7047EAE79CEAE0
:1023F000026F05D010EA5C0F08BF00F00040704784
:1024000010B500F092F900BF64FBBE3E4FF47F0CA4
:102410001CEAD0121EBF1CEAD11392EA0C0F93EAF9
:102420000C0F00F0858090EA010F48BF42F48072E3
:1024300040F4000C41F400002CF07F4120F07F407C
:1024400000B58142A2EB03020FF2081CACEB504E28
:10245000C0F100009EF800E04FEA4E0E00FB0EFCBB
:1024600038BF49004FEA2C1C02F5FA020CFB0EF3B0
:102470004FEACE1E4FEA112C4FEAC1210EEB635EEC
:1024800042EB22420EFB0CFC4FEA1C5300FB0311F3
:102490004FEA112C4FEA01310EFB0CFC4FEADC4CE9
:1024A00000FB0C11C14228BF09184CEB03335DF847
:1024B00004EB10EB410143EBC250B2F57C0F38BF87
:1024C000704729D512F0F00F1CBF00F1C04000F09A
:1024D00000407047008182838485868788898B8C41
:1024E0008D8E8F919293959697999A9C9D9FA0A27D
:1024F000A3A5A7A8AAACAEB0B2B3B5B7B9BCBEC0CD
:10250000C2C5C7C9CCCED1D4D7D9DCDFE2E6E9EC6D
:10251000F0F3F7FAFE0000004FEA400C0CF1807C6B
:10252000BCF17E4F28BF7047B0F1C04000F043B906
:1025300090EA010F0CEAD11348BF42F48072624561
:1025400038BF634507D213F47F0F16D080EA01002D
:1025500000F00040704710B500F0E7F8097EFC3E3F
:1025600000F005B880EA010000F00040704780EA02
:10257000010000F0004000F01EB912F47F0F04BF0C
:102580000248704780EA010000F015B90000C07FE2
:10259000C10DD1F19E0206DB4FEA002343F0004358
:1025A00023FA02F07047004207D54FEA4001B1F12B
:1025B000FE4F02D24FF00000704710B500F0B5F8A2
:1025C00049922480002070476FEA20007047000085
:1025D00010F0004148BF4042B0FA80F310FA03F215
:1025E000C3F19D030BD051EAC35101EB12205306F6
:1025F00038BF704700F1010008BF20F001007047AC
:10260000B0FA80F310FA03F2C3F19D030AD0D905A2
:1026100001EB1220530638BF704700F1010008BFDC
:1026200020F00100704700004FF47F0C1CEAD0122C
:102630001EBF1CEAD11392EA0C0F93EA0C0F00F0B4
:10264000478090EA010F48BF42F480724FF0004C7F
:102650004CEA00204CEA012102EB0302A0FB01132B
:10266000A2F50002002918BF43F001035B0028BF58
:102670004FEA330342EB22425FEA132C4CEBC25089
:102680002EBFBCEB436FB2F57C0F70474FEA036C73
:10269000BCF1004F08BF20F00100B2F57C0F38BF3D
:1026A00070470BD582F0FF0212F5803FC8BF70471C
:1026B00000F1C040D8BF00F00040704700F5000CAA
:1026C0005FEA4C0C48BF7047B0F1C04000F073B8EF
:1026D00090EA010F0CEAD11348BF42F480726245C0
:1026E00038BF634504D280EA010000F00040704723
:1026F00010B500F01AF800BF8900013E00F007B8DD
:1027000000F009B85FEA410C5FEA1C6C08D080EA6F
:10271000010000F050B85FEA400C5FEA1C6CF6D193
:102720004FF00040A0F5800070470EF1020E2EF031
:10273000030E5EF8044B244204D44FEA4102B2F186
:102740007F4F11D84FEA4003B3F17F4F0CD80ED121
:102750004FEAD07CB2F17F4F0CEB4C0C0CF1020C29
:1027600008BF4CEBD17C04E04FF0080C01E04FEACD
:10277000D17C0CEB4C0324FA03F404F00704B4F10D
:10278000040C06D20EEB840CBDE810404CF0010C9A
:102790006047DFE80CF0070802024FF00040A0F5A8
:1027A000800010BD0846420018BFD2F1807288BF79
:1027B00000F0004010BDFF2141EAD050C005704735
:1027C00080F0004090EA010F7FF5C5AD81F0004137
:1027D00000F007B890EA010F48BF81F000413FF5D3
:1027E000BAAD421A04D882F00042A0EB02001144B4
:1027F0004FEAD0524FF07F4C1CEA410FA2EBD1536D
:1028000018BF9CEA026F4AD04FF0004C4CEA0020FF
:102810004CEA012121FA03FCB0EB0C0C0FD412F0AE
:10282000FE0F36D05FEA4C001DD5001240EBC250BF
:1028300038BF70471CF03F0F18BF70470BE0A2F184
:1028400001025FEA1C2040EBC25038BF70471CF009
:102850007F0F18BF7047C3F12003994014BF401E7B
:1028600020F00100704780084FEA122308BF70472C
:10287000B0FA80FCA2EB0C02CCF1280C60FA0CF050
:1028800093EA122F04BF00EBC25070474FEAC370A7
:102890007047130A5FEADC1008BF7047F6E79CEA4E
:1028A000026F04D010EA5C0F08BF0020704710B51B
:1028B000FFF73BFF40DFF63E81F00040704700002D
:1028C0000000000000000000000000000000000008
:1028D00000000000000000000000000000000000F8
:1028E00000000000000000000000000000000000E8
:1028F00000000000000000000000000000000000D8
:1029000000000000000000000000000000000000C7
:1029100000000000000000000000000000000000B7
:1029200000000000000000000000000000000000A7
:102930000000000000000000000000000000000097
:102940000000000000000000000000000000000087
:102950000000000000000000000000000000000077
:102960000000000000000000000000000000000067
:102970000000000000000000000000000000000057
:102980000000000000000000000000000000000047
:102990000000000000000000000000000000000037
:1029A0000000000000000000000000000000000027
:1029B0000000000000000000000000000000000017
:1029C0000000000000000000000000000000000007
:1029D00000000000000000000000000000000000F7
:1029E00000000000000000000000000080808080E7
:1029F0008080800000000000000000000000000057
:102A000000000000000000000000000000000000C6
:102A100000000000000000000000000000000000B6
:102A200000000000000000000000000000000000A6
:102A30000000000000000000000000000000000096
:102A40000000000000000000000000000000000086
:102A50000000000000000000000000000000000076
:102A60000000000086C6C6C7C7E3E3E3E3E3E1E195
:102A7000E3E7C7C787060000000000000000000071
:102A80000000000000000000000000000010181C02
:102A90001C1E0E06078783838707070706060E1E80
:102AA0001C1C1C18000000000000000000000000BA
:102AB0000000000000000000000000000000000016
:102AC0000000000000000000000000000000000006
:102AD00000000000000000000000000000000000F6
:102AE0000000000F0F1F1F3F3F383830303038389C
:102AF0003D3F1F1F1F0F00000000000000000000EE
:102B000000000000000000000000000000083C7E03
:102B10007EFEFFEFC7C3C3C3C3C3E7FFFFFF7E7ED5
:102B20003C18000000000000000000000000000051
:102B30000000000000000000000000000000000095
:102B400000000000000000000000103838387C7CD5
:102B50007C7C7C7C6C6C6C6C6C6C6C6C6C6C7C7C55
:102B60007C783838300000000000000000000000D1
:102B700000C0C0C0C0C00000000000000080808015
:102B80008000000000000000C0C0C0C08000000045
:102B90000000000001010101010100008080C0C0AF
:102BA000C0C0C0C0C0C0C0C0C0C0C0C0C0808080E5
:102BB0000000000000000000000000000000000015
:102BC0000000000000000000000000000000000005
:102BD00000000000000000000000000000000000F5
:102BE00000000000000000000000000000000000E5
:102BF00000070F1F1F1F1C181818181C1F0F0F1F6E
:102C00001F3E383838383838393F1F1F0F0F04003F
:102C1000000000000000000000000307070707078E
:102C20000706060E0E0E0E0E0E0E0E0F0F070707EE
:102C3000030300000000000000000000000000008E
:102C40000000000000000000000000000000000084
:102C50000000000000000000000000000000000074
:102C60000000000000000000000000000000000064
:102C70000000000000000000000000000000000054
:102C80000000000000000000000000000000000044
:102C90000000000000000000000000000000000034
:102CA0000000000000000000000000000000000024
:102CB0000000000000000000000000000000000014
:102CC0000000000000000000000000000000000004
:102CD00000000000000000000000000000000000F4
:102CE00000000000000000000000000000000000E4
:102CF00000000000000000000000000000000000D4
:102D000000000000000000000000000000000000C3
:102D100000000000000000000000000000000000B3
:102D200000000000000000000000000000000000A3
:102D30000000000000000000000000000000000093
:102D40000000000000000000000000000000000083
:102D5000000000000000000000000080C0E0F0F86B
:102D6000F8FCFCFCFCFCFCF8F0F0E080000000004B
:102D70000000000000000000000000000000000053
:102D800000000000000000000000000000000080C3
:102D9000C0E0F0F8F8FCFCFCFCFCF8F8F0F0E08097
:102DA0000000000000000000000000000000000023
:102DB0000000000000000000000000000000000013
:102DC0000000000000000000000000000000000003
:102DD0000000000000000000C0F8FEFFFFFFFFFF42
:102DE000FFFFFFFFFFFFFFFFFFFFFFFFFFFCF08084
:102DF00000000000000000000000000000000000D3
:102E0000000000000000000000000000C0F8FEFF0D
:102E1000FFFFFFFFFFFFFFFFFFFFFFFFFFFFFFFFC2
:102E2000FFFCF08000000000000000000000000037
:102E30000000000000000000000000000000000092
:102E40000000000000000000000000000000000082
:102E500000000000000000FCFFFFFFFFFFFFFFFF7E
:102E6000FFFFFFFFFFFFFFFFFFFFFFFFFFFFFFFF72
:102E70000000000000000000000000000000000052
:102E80000000000000000000000000FCFFFFFFFF4A
:102E9000FFFFFFFFFFFFFFFFFFFFFFFFFFFFFFFF42
:102EA000FFFFFFFF00000000000000000000000026
:102EB0000000000000000000000000000000000012
:102EC0000000000000000000000000000000000002
:102ED000000000000000003FFFFFFFFFFFFFFFFFBB
:102EE000FFFFFFFFFFFFFFFFFFFFFFFFFFFFFFFFF2
:102EF00000000000000000000000000000000000D2
:102F000000000000000000000000003FFFFFFFFF86
:102F1000FFFFFFFFFFFFFFFFFFFFFFFFFFFFFFFFC1
:102F2000FFFFFFFF000000000000000000000000A5
:102F30000000000000000000000000000000000091
:102F40000000000000000000000000000000000081
:102F50000000000000000000031F7FFFFFFFFFFFD5
:102F6000FFFFFFFFFFFFFFFFFFFFFFFFFF3F0F011F
:102F70000000000000000000000000000000000051
:102F8000000000000000000000000000031F7FFFA1
:102F9000FFFFFFFFFFFFFFFFFFFFFFFFFFFFFFFF41
:102FA000FF3F0F01000000000000000000000000D3
:102FB0000000000000000000000000000000000011
:102FC0000000000000000000000000000000000001
:102FD00000000000000000000000000103070F1FB8
:102FE0001F3F3F3F3F3F3F1F1F0F070300000000F1
:102FF00000000000000000000000000000000000D1
:1030000000000000000000000000000000000001BF
:1030100003070F1F1F3F3F3F3F3F3F1F1F0F070388
:1030200000000000000000000000000000000000A0
:103030000000000000000000000000000000000090
:103040000000000000000000000000000000000080
:103050000000000000000000000000000000000070
:103060000000000000000000000000000000000060
:103070000000000000000000000000000000000050
:103080000000000000000000000000000000000040
:103090000000000000000000000000000000000030
:1030A0000000000000000000000000000000000020
:1030B0000000000000000000000000000000000010
:1030C0000000000000000000000000000000000000
:1030D00000000000000000000000000000000000F0
:1030E00000000000000000000000000000000000E0
:1030F00000000000000000000000000000000000D0
:1031000000000000000000000000000000000000BF
:1031100000000000000000000000000000000000AF
:10312000000000000000000000000000000000009F
:10313000000000000000000000000000000000008F
:103140000000000000003070F0F0F0E0E0E0C0C0EF
:1031500080808000000000000000000000000000EF
:10316000000000000000000000000000000000005F
:10317000000000000000000000000000000000004F
:10318000000000000000000000000000000000003F
:10319000000000000000000000000000000000002F
:1031A00000000000000000808080C0C0E0E0F0F07F
:1031B0007078787830000000000000000000000007
:1031C00000000000000000000000000001010303F7
:1031D000030707070F0E1E1E1C3C3C787878F0F0A2
:1031E000E0E0E0C0C0C080800000000000000000FF
:1031F00000000000000000000000000000000000CF
:1032000000000000000000000000000000000000BE
:1032100000000000000000C0E0E0F0F0F0F8F8F876
:103220003C1C1E1E0F0F07070707030101010100C9
:10323000000000000000000000000000000000008E
:10324000000000000000000000008080C0C0C0C07E
:10325000E0E0E0E0F07070787838383C3C1C1C1EF0
:103260001F1F0F0F0F0F07070300000000000000D3
:10327000000000000000000000000000000000004E
:10328000000000000000000000000000000000003E
:103290000000000000000000010303030707070F00
:1032A0000F0F0F1E1E1E3C3C3C787878F0F0F0E0CB
:1032B000E0E0E0C08000000000000000000000002E
:1032C00000000000000000008081030303F361019F
:1032D000010180E03000000080C0C000000000005C
:1032E00000000000000000000000000000000000DE
:1032F0000000103878F8F8F8783838383838383826
:103300003838383838383878F8F8783830000000ED
:1033100000000000000000000000000000000000AD
:1033200000C0E0000080F03000000080F07000007D
:103330000101E1C1000000000000000000000000E9
:1033400000000000000000070F0100103F0F000008
:10335000007C1F030000603C0F0300000000000021
:10336000000000000000000000000000000000005D
:103370000000000000000F3FFCF0C0C0C0C0C0C093
:10338000C0C0C0C0C0C0E0FC7F0F00000000000053
:10339000000000000000000000000000000000002D
:1033A00000070300003F070000003C1F0000001062
:1033B0003C1F0100000000000000000000000000B1
:1033C00000000000000000000000000000000000FD
:1033D00000000000000000000000000000000000ED
:1033E00000000000000000000000000000000000DD
:1033F00000000000000000000000000000000000CD
:1034000000000000000000000000000000000000BC
:1034100000000000000000000000000000000000AC
:10342000000000000000000000000000000000009C
:10343000000000000000000000000000000000008C
:10344000000000000000000000000000000000007C
:10345000000000000000000000000000000000006C
:10346000000000000000000000000000000000005C
:10347000000000000000000000000000000000004C
:10348000000000000000000000000000000000003C
:10349000000000000000000000000000000000002C
:1034A000000000000000000000000000000000001C
:1034B000000000000000000000000000000000000C
:1034C00000000000000000000000000000000000FC
:1034D00000000000000000000000000000000000EC
:1034E00000000000000000000000000000000000DC
:1034F00000000000000000000000000000000000CC
:1035000000000000000000000000000000000000BB
:1035100000000000000000000000000000000000AB
:10352000000000000000000000000000000000009B
:10353000000000000000000000000000000000008B
:103540000000000000C0F838383060E0C0800000A3
:10355000000000000000000000000000000000006B
:10356000000000000000000000000000000000005B
:10357000000000000000000000000000000000004B
:10358000000000000000000000000000000000003B
:10359000000000000000000000000000000000002B
:1035A00000000000000000000000000080C0E0708B
:1035B00030387CF0800000000000000000000000B7
:1035C00000000000FCFF8700000000000103070E60
:1035D0000C183870E0C080000000000000000000FF
:1035E00000000000000000000000000000000000DB
:1035F00000000000000000000000000000000000CB
:1036000000000000000000000000000000000000BA
:1036100000000000000000000000000000000000AA
:1036200000000080C0E070381C0E06070301000097
:10363000000000FFFF30000000000000000000005C
:103640000000000000071F3C70E0C0808000000008
:103650000000000000010103070E1C387060C0C0AC
:1036600080000000000000000000000000000000DA
:10367000000000000000000000000000000080C00A
:10368000C00000000000000000000000000000007A
:1036900000000000000000000080C0E06030381C26
:1036A0000E07030100000000000000008080C0C081
:1036B00060381C0F03000000000000000000000044
:1036C000000000000000000000000001018303076B
:1036D0000606068C8C0C0C0C1818181818181819DB
:1036E0001B1F1E1C1810000000000000000000003E
:1036F000000000FEFE0E1C38706070180E070301FB
:103700000103061C3830381C0EFFFF0000000000CB
:103710000000000018181C1E1F1B191818181898F4
:10372000980C0C0C0C0C8C06060607030381010098
:103730000000000000000000000000000000000089
:103740000000000000000000000000101E07000044
:10375000C0701C030000000000F03E0000000000EC
:103760000000000000000000000000000000000059
:10377000000000FFFF8000000000000000000000CB
:10378000000000000000000080FFFF0000000000BB
:1037900000000000000000000000000000180E0300
:1037A00000000000380F0100000000003F0300008F
:1037B0000000000000000000000000000000000009
:1037C00000000000000000000000000000000000F9
:1037D00000000000000000000000000000000000E9
:1037E00000000000000000000000000000000000D9
:1037F00000000000030303030303030303030303A5
:103800000303030303030303030301000000000099
:1038100000000000000000000000000000000000A8
:103820000000000000000000000000000000000098
:103830000000000000000000000000000000000088
:103840000000000000000000000000000000000078
:103850000000000000000000000000000000000068
:103860000000000000000000000000000000000058
:103870000000000000000000000000000000000048
:103880000000000000000000000000000000000038
:103890000000000000000000000000000000000028
:1038A0000000000000000000000000000000000018
:1038B0000000000000000000000000000000000008
:1038C00000000000000000000000000000000000F8
:1038D00000000000000000000000000000000000E8
:1038E00000000000000000000000000000000000D8
:1038F00000000000000000000000000000000000C8
:1039000000000000000000000000000000000000B7
:1039100000000000000000000000000000000000A7
:103920000000000000000000000000000000000097
:103930000000000000000000000000000000000087
:103940000000000000000000000000000000000077
:103950000000000000000000000000000000000067
:103960000000000000000000000000000000000057
:103970000000000000000000000000000000000047
:103980000000000000000000000000000000000037
:103990000000000000000000000000000000000027
:1039A0000000000000000000000000000000000017
:1039B0000000000000000000000000000000000007
:1039C0000000000000808080C0C0C0C0C0C0C0C077
:1039D000C0C0C0C0C0C0E0E0E0E0E0E0E0E0E0E0A7
:1039E000E0E0E0E0F0F0F0F0200000000000000077
:1039F00000000000000000000000000000000000C7
:103A000000000000000000000000000000000000B6
:103A100008181858F8F8F8F8F8F8F8F8F8F8F8F876
:103A2000F8F8F8F8F8F8F8F8F8F8F8F8F0F0F0F036
:103A3000F0F0F0F0F0F0F0F0F00000000000000016
:103A400000000080F3F3FBFBFBFBFBFFFFFFFFFF2E
:103A5000FFFFFFFFFFFFFFFFFFFF7D7D7D3D3D3D42
:103A60003D3D3D1D1F1F1F1F1E0E0E0C0C000000B4
:103A70000000000000000000000000000000000046
:103A80000000000000000000000000000000000036
:103A900000003C7EFFFFFFFFFFFFFFFFFFFFFFFF78
:103AA000FFFFFFFFFFFFFFFFFFFFFFFDFDF9F9F93C
:103AB000F9F9F9F9F1F1F1703000000000000000AF
:103AC000000000010100113F3F3F1F1F1F1F1F1F6C
:103AD0001F1F0F0F0F0F0F0F0F0F0F0F07070707F6
:103AE000070707070707030303030300000000009D
:103AF00080808080808080808080808080808080C6
:103B000080808080808080808080808000000000B5
:103B100000000000000000000000000000000000A5
:103B20000000000000000000000000000000000095
:103B30000000000000000000000000000000000085
:103B40000000000000000000000000000000000075
:103B50000000000000000000000000000000000065
:103B60000000000000000000000000000000000055
:103B7000FFFF010000000000000000000000000046
:103B80000000000000000000000081FFFF000000B6
:103B90000000000000000000000000000000000025
:103BA0000000000000000000000000000000000015
:103BB0000000000000000000000000000000000005
:103BC00000000000000000000000000000000000F5
:103BD00000000000000000000000000000000000E5
:103BE00000000000000000000000000000000000D5
:103BF00001010101010101010101010101010101B5
:103C000001010101FFFF00000003FF0100000000AF
:103C100000000000000000000000000000000000A4
:103C20000000000000000000000000000000000094
:103C30000000000000000000000000000000000084
:103C40000000000000000000000000000000000074
:103C50000000000000000000000000000000000064
:103C60000000000000000000000000000000000054
:103C70000000000000000000000000000000000044
:103C80000000000000030306020301000000000022
:103C90000000000000000000000000000000000024
:103CA0000000000000000000000000000000000014
:103CB0000000000000000000000000000000000004
:103CC00000000000000000000000000000000000F4
:103CD00000000000000000000000000000000000E4
:103CE00000000000000000000000000000000000D4
:103CF00000000000000000000000000000000000C4
:103D000000000000000000000000000000000000B3
:103D100000000000000000000000000000000000A3
:103D20000000000000000000000000000000000093
:103D30000000000000000000000000000000000083
:103D40000000000000000000000000000000000073
:103D50000000000000000000000000000000000063
:103D60000000000000000000000000000000000053
:103D70000000000000000000000000000000000043
:103D80000000000000000000000000000000000033
:103D90000000000000000000000000000000000023
:103DA0000000000000000000000000000000000013
:103DB0000000000000000000000000000000000003
:103DC0000000000000C0E0F0F8F8FC7C3E3E1E1F42
:103DD0001F1F1F1E3E3E7CFCF8F8F0E08000000034
:103DE00000000000000000000000000000000000D3
:103DF0000000000000000000000000C00000000003
:103E00000000808000000000000000000000008032
:103E100000000000000000000000000000000000A2
:103E200080E0F0F8F8FC7C3E3E1E1F1F1E1E1E3E6A
:103E30003E7CFCF8F8F0E08000000000000000008C
:103E4000000000F8FFFFFFFF070100000000000076
:103E500000000000000000000107FFFFFFFFF0006E
:103E6000000000000000000000000060301C06039D
:103E7000C0E0380E0700C0E0380E07010000E07017
:103E80001C07030060701C0703000060380E070168
:103E900030380E0300000000000000000000F8FFB2
:103EA000FFFFFF0301000000000000000000000011
:103EB0000000000107FFFFFFFFF00000000000000E
:103EC000000000010F3F7FFFFCF8F0E0C0C08080E1
:103ED00080808080C0C0E0F0F8FEFF7F1F0F0000F0
:103EE00000000000000000000000000000000000D2
:103EF00000000000000000000000000000000000C2
:103F000000000000000000000000000000000000B1
:103F10000000000000000000000000000000010F91
:103F20003F7FFFFCF8F0E0C0C0808080808080C0D0
:103F3000C0E0F0F8FEFF7F3F0F010000000000002E
:103F40000000000000000000010303070707070F3F
:103F50000F0F0F0F0707070301010000000000000B
:103F60000000000000000000000000000000000051
:103F70007FFC8000000000000000000000E0FFFE69
:103F8000800000000000000000000080FE7E0000B5
:103F90000000000000000000000000000000000021
:103FA000000000010303070707070F0F0F0F0707A4
:103FB00007070301010000000000000000000000EE
:103FC00000000000000000000000000000000000F1
:103FD00000000000000000000000000000000000E1
:103FE00000000000000000000000000000000000D1
:103FF0000001030306060606060606060301010184
:10400000030706060606060606060303010000006F
:1040100000000000000000000000000000000000A0
:104020000000000000000000000000000000000090
:104030000000000000000000000000000000000080
:104040000000000000000000000000000000000070
:104050000000000000000000000000000000000060
:104060000000000000000000000000000000000050
:104070000000000000000000000000000000000040
:104080000000000000000000000000000000000030
:104090000000000000000000000000000000000020
:1040A0000000000000000000000000000000000010
:1040B0000000000000000000000000000000000000
:1040C00000000000000000000000000000000000F0
:1040D00000000000000000000000000000000000E0
:1040E00000000000000000000000000000000000D0
:1040F00000000000000000000000000000000000C0
:1041000000000000000000000000000000000000AF
:10411000000000000000000000000000000000009F
:10412000000000000000000000000000000000008F
:10413000000000000000000000000000000000007F
:10414000E0E0E0E0C0C0C0808000000000000000AF
:10415000000000000000000000000000000000005F
:10416000000000000000000000000000000000004F
:10417000000000000000000000000000000000003F
:10418000000000000000000000000000000000002F
:10419000000000000000000000000000000000001F
:1041A000000000000000000000000000000000808F
:1041B00080C0C0C0E0E0F0F0F000000000000000AF
:1041C0000001010303030707070F0F0F1E1E3E3CEC
:1041D0007C7C78F8F0F0E0E0E0E0C0C08080800017
:1041E00000000000000000000000000000000000CF
:1041F00000000000000000000000000000000000BF
:1042000000000000000000000000000000000000AE
:1042100000000000000000000000008080C0C0C05E
:10422000E0E0E0F0F0F8F8F8BCBC9E9E9F8F8F8F26
:10423000C7C7C3C3C3C1C1C0C0C0000000000000E5
:104240000000081C1C1C1C1C1C1C1C1C1C1C9C9CFA
:104250009C9CDCDCDCDCFDFDFFFFFFFFFFFF7F7FC4
:104260007F3E3E3E3C1C0000000000000000E0E0FD
:10427000E00000000000000000000000000000C09E
:10428000C0C00000000000000000000000C0C0C06E
:104290000000000000000000000F0F0F1F1F1F3F55
:1042A0003F3F3F7F7F7FFBF3F3F3E3E3E3E3C1C1F2
:1042B000C1818181010101010000000000000000B6
:1042C000000000001C3C3C1E1E1E1F0F0F0F0F871E
:1042D00007070703030301010101000000000000BC
:1042E0000000000000000000000000000000031FAC
:1042F0007FF8E0C0C0808080808080C0E0F0783FA0
:104300007FFFE080000000000000000080F3FFFF5E
:10431000000000000000000000000000000000009D
:10432000000000000000000000010101030303037E
:104330008787070F0F0F0F0E0C0000000000000012
:104340000000F8FC0000C0FE7F02000080F07F0F3C
:10435000010000C0F81E0400000000000000000082
:10436000000000000000000000000000000000004D
:1043700000000003FFFFFF0303030301010000002F
:1043800000010307070FFEFE3E06070707030100B3
:10439000000000000000000000000000000000001D
:1043A000000000F07E0C0000F87F07000000E0FC39
:1043B0001F030000C0F03E060000000000000000E7
:1043C0000000010000000303000000040F070000CC
:1043D00000000607000000000000000000000000D0
:1043E00000000000000000000000000000000000CD
:1043F000000000000003070F1E1C1C1C1C1C1C1CC2
:104400001C1C1C1C1E0F0F030000000000000000FD
:10441000000000000000000000000000000000009C
:10442000000000000000000003000000000707007B
:104430000000000207010000000000000000000072
:10444000000000000000000000000000000000006C
:10445000000000000000000000000000000000005C
:10446000000000000000000000000000000000004C
:10447000000000000000000000000000000000003C
:10448000000000000000000000000000000000002C
:10449000000000000000000000000000000000001C
:1044A000000000000000000000000000000000000C
:1044B00000000000000000000000000000000000FC
:1044C00000000000000000000000000000000000EC
:1044D00000000000000000000000000000000000DC
:1044E00000000000000000000000000000000000CC
:1044F00000000000000000000000000000000000BC
:1045000000000000000000000000000000000000AB
:10451000000000000000000000000000000000009B
:10452000000000000000000000000000000000008B
:10453000000000000000000000000000000000007B
:10454000000000000000000000000000000080806B
:10455000C0C0C0800000000000000000000000009B
:10456000000000000000000000000000000000004B
:10457000000000000000000000000000000000003B
:10458000000000000000000000000000000080802B
:10459000C0C0C0800000000000000000000000005B
:1045A000000000000000000000000000000000000B
:1045B00000000000000000000000000000000000FB
:1045C0000000000000000000000000E0FFFFFFFF0F
:1045D000FFFFFFFFFE0000000000000000000000E1
:1045E00000000000000000000000000000000000CB
:1045F00000000000000000000000000000000000BB
:104600000000000000000000000000E0FFFFFFFFCE
:10461000FFFFFFFFFE0000000000000000000000A0
:10462000000000000000000000000000000000008A
:10463000000000000000000000000000000000007A
:1046400000000000000000000000FFFFFFFFFFFF70
:10465000FFFFFFFFFF00000000000000000000005F
:10466000000000000000000000000000000000004A
:10467000000000000000000000000000000000003A
:1046800000000000000000000000FFFFFFFFFFFF30
:10469000FFFFFFFFFF00000000000000000000001F
:1046A000000000000000000000000000000000000A
:1046B00000000000000000000000000000000000FA
:1046C00000000000000000000000FFFFFFFFFFFFF0
:1046D000FFFFFFFFFF0000000000000000000000DF
:1046E00000000000000000000000000000000000CA
:1046F00000000000000000000000000000000000BA
:1047000000000000000000000000FFFFFFFFFFFFAF
:10471000FFFFFFFFFF00000000000000000000009E
:104720000000000000000000000000000000000089
:104730000000000000000000000000000000000079
:10474000000000000000000000000007FFFFFFFF66
:10475000FFFFFFFF7F0000000000000000000000DE
:104760000000000000000000000000000000000049
:104770000000000000000000000000000000000039
:10478000000000000000000000000007FFFFFFFF26
:10479000FFFFFFFF7F00000000000000000000009E
:1047A0000000000000000000000000000000000009
:1047B00000000000000000000000000000000000F9
:1047C00000000000000000000000000000000101E7
:1047D00003030301000000000000000000000000CF
:1047E00000000000000000000000000000000000C9
:1047F00000000000000000000000000000000000B9
:1048000000000000000000000000000000000101A6
:10481000030303010000000000000000000000008E
:104820000000000000000000000000000000000088
:104830000000000000000000000000000000000078
:104840000000000000000000000000000000000068
:104850000000000000000000000000000000000058
:104860000000000000000000000000000000000048
:104870000000000000000000000000000000000038
:104880000000000000000000000000000000000028
:104890000000000000000000000000000000000018
:1048A0000000000000000000000000000000000008
:1048B00000000000000000000000000000000000F8
:1048C00000000000000000000000000000000000E8
:1048D00000000000000000000000000000000000D8
:1048E00000000000000000000000000000000000C8
:1048F00000000000000000000000000000000000B8
:1049000000000000000000000000000000000000A7
:104910000000000000000000000000000000000097
:104920000000000000000000000000000000000087
:104930000000000000000000000000000000000077
:104940000000000000000000000000000000000067
:104950000000000000000000000000000000000057
:10496000000000000000000080C0C0C08080000087
:104970000000000000000000000000000000000037
:104980000000000000000000000000000000000027
:104990000000000000000000000000000000000017
:1049A000000000000000000080C0C0C08080000047
:1049B00000000000000000000000000000000000F7
:1049C00000000000000000000000000000000000E7
:1049D00000000000000000000000000000000000D7
:1049E00000000000000000FEFFFFFFFFFFFFFFFFD1
:1049F000E0000000000000000000000000000000D7
:104A000000000000000000000000000000000000A6
:104A10000000000000000000000000000000000096
:104A200000000000000000FEFFFFFFFFFFFFFFFF90
:104A3000E000000000000000000000000000000096
:104A40000000000000000000000000000000000066
:104A50000000000000000000000000000000000056
:104A600000000000000000FFFFFFFFFFFFFFFFFF4F
:104A7000FFFF000000000000000000000000000038
:104A80000000000000000000000000000000000026
:104A90000000000000000000000000000000000016
:104AA00000000000000000FFFFFFFFFFFFFFFFFF0F
:104AB000FFFF0000000000000000000000000000F8
:104AC00000000000000000000000000000000000E6
:104AD00000000000000000000000000000000000D6
:104AE00000000000000000FFFFFFFFFFFFFFFFFFCF
:104AF000FFFF0000000000000000000000000000B8
:104B000000000000000000000000000000000000A5
:104B10000000000000000000000000000000000095
:104B200000000000000000FFFFFFFFFFFFFFFFFF8E
:104B3000FFFF000000000000000000000000000077
:104B40000000000000000000000000000000000065
:104B50000000000000000000000000000000000055
:104B6000000000000000007FFFFFFFFFFFFFFFFFCE
:104B7000070000000000000000000000000000002E
:104B80000000000000000000000000000000000025
:104B90000000000000000000000000000000000015
:104BA000000000000000007FFFFFFFFFFFFFFFFF8E
:104BB00007000000000000000000000000000000EE
:104BC00000000000000000000000000000000000E5
:104BD00000000000000000000000000000000000D5
:104BE00000000000000000000103030301010000B9
:104BF00000000000000000000000000000000000B5
:104C000000000000000000000000000000000000A4
:104C10000000000000000000000000000000000094
:104C20000000000000000000010303030101000078
:104C30000000000000000000000000000000000074
:104C40000000000000000000000000000000000064
:104C50000000000000000000000000000000000054
:104C60000000000000000000000000000000000044
:104C70000000000000000000000000000000000034
:104C80000000000000000000000000000000000024
:104C90000000000000000000000000000000000014
:104CA0000000000000000000000000000000000004
:104CB00000000000000000000000000000000000F4
:104CC00000000000000000000000000000000000E4
:104CD00000000000000000000000000000000000D4
:104CE00000000000000000000000000000000000C4
:104CF00000000000000000000000000000000000B4
:104D000000000000000000000000000000000000A3
:104D10000000000000000000000000000000000093
:104D20000000000000000000000000000000000083
:104D30000000000000000000000000000000000073
:104D40000000000000000000000000000000000063
:104D50000000000000000000000000000000000053
:104D60000000000000000000000000000000000043
:104D70000000000000000000000000000000000033
:104D80000000000000000000000000000000000023
:104D90000000000000000000000000000000000013
:104DA0000000000000000000000000000000000003
:104DB00000000000000000000000000000000000F3
:104DC00000000000000000000000000000000000E3
:104DD00000000000808080808080000000000000D3
:104DE00000000000000000000000000000000000C3
:104DF00000000000000000000000000000000000B3
:104E000000000000000000000000000000000000A2
:104E10000000000000000000000000000000000092
:104E2000008080C0C0E0E0E0E06000000000000022
:104E30000000000000000000000000000000000072
:104E40000000000000000000000000000000000062
:104E50000000060606070F0F0F1F1F1F1E3E3C3CDB
:104E60007C78F8F8F0F0F0E0E0E0C0C0000080C02E
:104E7000E0E0F0F0F0F0F0F0F0F0F8F8F8F8F8F822
:104E8000F8F8F0F0F07070707070F0F0F0F0E0E0B2
:104E9000C00000008080C0C0E0E0F0F8F8FC7E7E3A
:104EA0007F3F3F1F1F0F0F0703020000000000009D
:104EB00000000000000000000000000000000000F2
:104EC00000000000000000000000000000000000E2
:104ED0000000000000004060E0F0F8F8FC7C7E7EFE
:104EE0003E3F1F1F0F0F07070303030100001FFFB3
:104EF000FFFFFFFFFFFF00000000000000000000B8
:104F0000000000000000000000000307FFFFFFFF9B
:104F1000FFFE0000030707070F0F0F0F0F1F1E1ED6
:104F20001E3E3E3E3C3C3C3C7C78787878F0F0F08D
:104F3000F0C0C00000000000000000000000000001
:104F400000000000000000000000C0E0F0F0F07879
:104F5000383838383838383838383838B8F8F8F019
:104F6000F0E0000000000000000000000000000071
:104F7000031F3F3F3F3F3C383838383838383838DF
:104F80003838383838383838383818181F1F1F1F45
:104F90001F1F00000000000000000000000080C093
:104FA000C0E0E0E0E0707070707070707070703031
:104FB00070F0F0F0E0E000000000000000000000F1
:104FC00000000000000000000000010103030303D3
:104FD0000303030307070707030303030303030193
:104FE00001000000000000000000000000000000C0
:104FF00000000000000000000000000000000000B1
:1050000000000000000000000000000000000000A0
:10501000000000000000000000000000000001018E
:10502000030307070606060E0E0E0E0E0E0E0E06E4
:105030000707070303010000000000000000000054
:105040000000000000000000000000000000000060
:105050000000000000000000000000000000000050
:105060000000000000000000000000000000000040
:105070000000000000000000000000000000000030
:105080000000000000000000000000000000000020
:105090000000000000000000000000000000000010
:1050A0000000000000000000000000000000000000
:1050B00000000000000000000000000000000000F0
:1050C00000000000000000000000000000000000E0
:1050D00000000000000000000000000000000000D0
:1050E00000000000000000000000000000000000C0
:1050F00000000000000000000000000000000000B0
:10510000000000000000000000000000000000009F
:10511000000000000000000000000000000000008F
:10512000000000000000000000000000000000007F
:10513000000000000000000000000000000000006F
:10514000000000000000000000000000000000005F
:10515000000000000000000000000000000000004F
:10516000000000000000000000000000000000003F
:10517000000000000000000000000000000000002F
:10518000000000000000000000000000000000001F
:10519000000000000000000000000000000000000F
:1051A00000000000000000000000000000000000FF
:1051B00000000000000000000000000000000000EF
:1051C00000000000000000000000000000000000DF
:1051D00000000000000000606060606060606020AF
:1051E00020606060606040C0C0C0C080808080007F
:1051F000000000000000000000000000000000802F
:1052000080000000000000000000808080C0C0C05E
:1052100040606060202020202020202020202020AE
:10522000206060600000000000000000000000003E
:10523000000000000000000000000000000000006E
:10524000000000000000000000000000000000005E
:1052500080C0E06030301018180808080C0C0C0CE6
:105260000C1C3C3C3C3C3C383808081811113133CC
:10527000236362C0C08080000000000000000001C5
:105280000103838282C343436323212131303030C1
:10529000707070707030181808080808080818181E
:1052A000181010103020E0C0800000000000000046
:1052B00000000000000000000000000000000000EE
:1052C00000000000000000000000000000000000DE
:1052D0000001030302060404040404040404040695
:1052E000060606060404040C08080818101010101E
:1052F000103030303011191F0E0600000000040E6F
:105300001F1B1111303030303010101010181818C9
:1053100018080808080C0C0C0C08080808081818CD
:10532000181808080C060703010000000000000020
:10533000000000000000000000000000000000006D
:10534000000000000000000000000000000000005D
:10535000000000000000000000000000000000004D
:10536000000000000000000000000000000000003D
:10537000000CFEFEFEC404040C0C0C0C0C04040413
:1053800004C4FEFE7E0400000000000000000000D7
:10539000000000000000000000000000000000000D
:1053A00000000000000000000000000000000000FD
:1053B00000000000000000000000000000000000ED
:1053C00000000000000000000000000000000000DD
:1053D00000000000000000000000000000000000CD
:1053E00000000000000000000000000000000000BD
:1053F0000000003FFFFFF0800000000000C0F0FC54
:105400003F1F070100000000000000000000000036
:10541000000000000000000000000000000000008C
:10542000000000000000000000000000000000007C
:10543000000000000000000000000000000000006C
:10544000000000000000000000000000000000005C
:10545000000000000000000000000000000000004C
:10546000000000000000000000000000000000003C
:1054700000000000000103030706060607030300FF
:10548000000000000000000000000000000000001C
:10549000000000000000000000000000000000000C
:1054A00000000000000000000000000000000000FC
:1054B00000000000000000000000000000000000EC
:1054C00000000000000000000000000000000000DC
:1054D00000000000000000000000000000000000CC
:1054E00000000000000000000000000000000000BC
:1054F00000000000000000000000000000000000AC
:10550000000000000000000000000000000000009B
:10551000000000000000000000000000000000008B
:10552000000000000000000000000000000000007B
:10553000000000000000000000000000000000006B
:10554000000000000000000000000000000000005B
:10555000000000000000000000000000000080C00B
:10556000C0E0F0F0783838383838787878F0F0F0F3
:10557000E0E0C0C0000000000000000000000000EB
:105580000000000000000000008080C0C0E0E0F0EB
:10559000F0707878787070F0E0E0C0C08080000033
:1055A00000000000000000000000000000000000FB
:1055B00000000000000000000000000000000000EB
:1055C00000000000000000000000000000000000DB
:1055D000000000000000000000000000060F0F0F98
:1055E00003010000000000000000000000000001B6
:1055F0000103070F0F0E0000000000000000000074
:105600000000000000000E0E0F0F07030301010051
:10561000000000000000000000000103070F0F0E53
:10562000000000000000000000000000000000007A
:10563000000000000000000000000000000000006A
:10564000000000000000000000000000000000005A
:1056500000000000000000000000000000183818E2
:10566000F8F8F8FCFCFCFCFCFCFCFCFC1C1C1C1C06
:105670001C1C1C1C1C3C3C383000000000000000BE
:1056800000000000000C0C1CFCFCFCFCFEFEFEFEFE
:10569000FEFEBE3E3E3E3E1E1E1E1E1E1E1C1C1C50
:1056A00000000000000000000000000000000000FA
:1056B00000000000000000000000000000000000EA
:1056C00000000000000000000000000000000000DA
:1056D00000000000000000000000000000000000CA
:1056E00001010303030303030301010000000000A1
:1056F00000000000000000000000000000000000AA
:105700000000000000000000000103030303030386
:105710000303010000000000000000000000000082
:105720000000000000000000000000000000000079
:105730000000000000000000000000000000000069
:105740000000000000000000000000000000000059
:105750000000000000000000000000000000000049
:105760000000000000000000000000000000000039
:10577000000000000000008080C0E0F0F0F070E069
:10578000E0C0C08000000000000000000000000039
:105790000000000000000000000000000000000009
:1057A00000000000000000000000000000000000F9
:1057B00000000000000000000000000000000000E9
:1057C00000000000000000000000000000000000D9
:1057D00000000000000000000000000000000000C9
:1057E00000000000000000000000000000000000B9
:1057F0000000000000000307070707030000000087
:10580000010307070703000000000000000000007C
:105810000000000000000000000000000000000088
:105820000000000000000000000000000000000078
:105830000000000000000000000000000000000068
:105840000000000000000000000000000000000058
:105A500000000000000000008080C0C0E0E0F0F026
:105A6000F8F8F8BCBEFEFEFEFEFEFEFCE400000000
:105A70000000000000000000000000000000000026
:105A8000000000000000000000000000000080FC9A
:105A9000FCFCFCFCFCFCFCF83870F0F0E0E0C0C062
:105AA000C080800000000000000000000000000036
:105AB00000000000000000000000000000000000E6
:105AC00000000000000000000000000000000000D6
:105AD0000000000C0C0E0E1F1F1F1F1F1F1F1F1F7B
:105AE0003F3F3F3F3F3F3F3F3F3F3F3F1F000000A3
:105AF00000000000000000000000000000000000A6
:105B000000000000000000000000000000081F7FEF
:105B10007F7F7F7F7F7F7F3F3F3F3F3F3F3F3F3FD5
:105B20001F1F1F1F1F0E0E0C0C00000000000000A6
:105B30000000000000000000000000000000000065
:105B400000000000000000000000000000E0E0F0A5
:105B5000F0F8F8B8989C9C9C9C9C9C9C9C9CFCF8A5
:105B6000F8F06000000000000000000000000000ED
:105B7000000000008080C0C0C0E0E0E0E0E06060C5
:105B8000E0E0E0E0C0C0C0800000000000000000D5
:105B9000000000000000000000000040E0E0F0F025
:105BA000F8B8B8383838383838B8B8B8B8F8F8F875
:105BB000F0F06000000000000000000000000000A5
:105BC00000000000000000000000000000000001D4
:105BD000010103030303030303030303030301019D
:105BE00001000000000000000000000000000000B4
:105BF00000000C0F0F1F1F1F1F0F030100000000EC
:105C0000000001070F0F0F0F0F0E00000000000033
:105C10000000000000000000000000000001010181
:105C2000030303030303030303030303030101014A
:105C30000100000000000000000000000000000063
:105C40000000000000000000000000000000000054
:105C50000000000000000000000000000000000044
:105C60000000000000000000000000000000000034
:105C70000000000000000000000000000000000024
:105C80000000000000000000000000000000000014
:105C90000000000000000000000000000000000004
:105CA00000000000000000000000000000000000F4
:105CB00000000000000000000000000000000000E4
:105CC00000000000000000000000000000000000D4
:105CD00000000000000000000000000000000000C4
